:100000000C942A000C9447000C9447000C94470071
:100010000C9447000C9447000C9447000C94470044
:100020000C9447000C9447000C9447000C94470034
:100030000C9447000C9402170C9447000C94470052
:100040000C9447000C9447000C9447000C94470014
:100050000C94470011241FBECFE5D8E0DEBFCDBF12
:1000600016E0A0E6B0E0E8EEFBE502C005900D92D8
:10007000A233B107D9F716E0A2E3B6E001C01D92A2
:10008000A739B107E1F70E94882B0C94F22D0C944C
:100090000000EF92FF920F931F937B018C0120E0F1
:1000A00030E040E05FE40E94F50388238CF0C80153
:1000B000B70120E030E040E05FE40E94C1010E940F
:1000C00055049B01AC01205030404040504806C0D0
:1000D000C801B7010E9455049B01AC01B901CA01D6
:1000E0001F910F91FF90EF900895A0E0B0E0EBE733
:1000F000F0E00C94522DDC012B01FA019C9192301E
:1001000008F439C1EB018881823008F433C194309E
:1001100069F4843009F02FC111969C91119789815F
:10012000981709F428C1A9E2B5E025C1843009F483
:1001300021C18230A9F4923009F01DC19A01AD01AC
:1001400088E0EA010990AE01E90109929E0181501F
:10015000C1F7E201898111969C918923818308C1AD
:10016000923009F407C112962D903C901397EB0141
:100170008A819B811496AD90BD90CD90DC901797AD
:10018000EC80FD800E811F819101281B390BB90184
:1001900037FF04C066277727621B730B6032710537
:1001A0000CF061C0121613066CF537014801062EDB
:1001B00004C096948794779467940A94D2F721E0C8
:1001C00030E040E050E004C0220F331F441F551FB1
:1001D0006A95D2F721503040404050402E213F21B7
:1001E00040235123211531054105510521F021E01E
:1001F00030E040E050E079018A01E628F72808293C
:1002000019293CC0232BD1F1260E371E350146019A
:10021000062E04C096948794779467940A94D2F734
:1002200021E030E040E050E004C0220F331F441FC3
:10023000551F6A95D2F721503040404050402A2146
:100240003B214C215D21211531054105510521F04E
:1002500021E030E040E050E059016A01A628B728CB
:10026000C828D9280BC0821593052CF01C01AA249C
:10027000BB24650103C0EE24FF24870111969C91E5
:10028000D20111968C91981709F445C0992339F041
:10029000A80197012A193B094C095D0906C0A6016E
:1002A00095012E193F09400B510B57FD08C01182D3
:1002B0003382228224833583468357831DC081E0A5
:1002C00081833382228288279927DC01821B930B4A
:1002D000A40BB50B84839583A683B7830DC0220F2F
:1002E000331F441F551F24833583468357838281E0
:1002F000938101979383828324813581468157813D
:10030000DA01C9010197A109B1098F5F9F4FAF4F72
:10031000BF4328F30BC0918333822282EA0CFB1C7B
:100320000C1D1D1DE482F5820683178383E0808304
:10033000248135814681578157FF1AC0C901AA27F8
:1003400097FDA095BA2F81709070A070B0705695EF
:10035000479537952795822B932BA42BB52B848318
:100360009583A683B7838281938101969383828349
:10037000DF0101C0D201CD01CDB7DEB7E2E10C94BF
:100380006E2DA0E2B0E0E7ECF1E00C945E2D698305
:100390007A838B839C832D833E834F835887E9E048
:1003A000EE2EF12CEC0EFD1ECE010196B7010E943F
:1003B00046068E010F5E1F4FCE010596B8010E94C2
:1003C00046068A8991E089278A8BC701B801AE0168
:1003D000475E5F4F0E9475000E947105A096E6E09F
:1003E0000C947A2DA0E2B0E0E8EFF1E00C945E2DE1
:1003F00069837A838B839C832D833E834F835887C5
:10040000F9E0EF2EF12CEC0EFD1ECE010196B701A6
:100410000E9446068E010F5E1F4FCE010596B80161
:100420000E944606C701B801AE01475E5F4F0E94B9
:1004300075000E947105A096E6E00C947A2DA0E26A
:10044000B0E0E5E2F2E00C94522D69837A838B836D
:100450009C832D833E834F835887CE010196BE0136
:10046000675F7F4F0E944606CE010596BE016F5E14
:100470007F4F0E9446069985923088F089898230A4
:10048000C8F0943019F4823051F404C0843029F457
:10049000923081F489E295E0C6C0923049F420E0C0
:1004A0009A858A89981321E02A87CE010996BBC0D4
:1004B000823049F420E09A858A89981321E02A8BBA
:1004C000CE014196B0C02D843E844F8458886D88FB
:1004D0007E888F88988CEE24FF248701AA24BB2471
:1004E000650140E050E060E070E0E0E0F0E0C10174
:1004F00081709070892BE9F0E60CF71C081D191D1E
:100500009A01AB012A0D3B1D4C1D5D1D80E090E062
:10051000A0E0B0E0E614F7040805190520F481E036
:1005200090E0A0E0B0E0BA01A901480F591F6A1F8E
:100530007B1FAA0CBB1CCC1CDD1C97FE08C081E0F5
:1005400090E0A0E0B0E0A82AB92ACA2ADB2A3196B6
:10055000E032F10549F0660C771C881C991C569412
:10056000479437942794C3CFFA85EA892B893C892D
:100570008B859C85280F391F2E5F3F4F17C0CA01FE
:1005800081709070892B61F016950795F794E79428
:1005900080E090E0A0E0B0E8E82AF92A0A2B1B2BC3
:1005A00076956795579547952F5F3F4F77FDE7CF36
:1005B0000CC0440F551F661F771F17FD4160EE0CDE
:1005C000FF1C001F111F21503040403090E05907A0
:1005D00090E0690790E4790760F32B8F3C8FDB0193
:1005E000CA018F779070A070B07080349105A1051A
:1005F000B10561F447FD0AC0E114F10401051105DC
:1006000029F0405C5F4F6F4F7F4F40781A8EFE1786
:1006100011F081E08A8F4D8F5E8F6F8F78A383E01A
:10062000898FCE0149960E947105A096E2E10C9453
:100630006E2DA8E1B0E0EFE1F3E00C945A2D698350
:100640007A838B839C832D833E834F835887B9E0C5
:10065000EB2EF12CEC0EFD1ECE010196B7010E948F
:1006600046068E010F5E1F4FCE010596B8010E940F
:1006700046062985223008F47EC03989323010F4CC
:10068000B8017CC08A859A8989278A87243011F02D
:10069000223031F4231709F06EC069E275E06EC0B4
:1006A000343039F41D861E861F86188A1C861B86E8
:1006B00004C0323021F484E08987B7015FC02B8504
:1006C0003C858B899C89281B390B3C872B87ED84C3
:1006D000FE840F851889AD88BE88CF88D88CEA142F
:1006E000FB040C051D0540F4EE0CFF1C001F111F40
:1006F000215030403C872B8720E030E040E050E044
:1007000080E090E0A0E0B0E460E070E0EA14FB0478
:100710000C051D0540F0282B392B4A2B5B2BEA18C2
:10072000FB080C091D09B695A79597958795EE0CC2
:10073000FF1C001F111F6F5F7F4F6F31710531F775
:10074000DA01C9018F779070A070B0708034910584
:10075000A105B10561F427FD0AC0E114F10401050A
:10076000110529F0205C3F4F4F4F5F4F20782D87B8
:100770003E874F87588BBE01675F7F4FCB010E943A
:1007800071056896EAE00C94762DA8E1B0E0EBECF8
:10079000F3E00C945E2D69837A838B839C832D8395
:1007A0003E834F83588789E0E82EF12CEC0EFD1E26
:1007B000CE010196B7010E9446068E010F5E1F4FC3
:1007C000CE010596B8010E9446068985823040F028
:1007D0008989823028F0C701B8010E94BE0601C095
:1007E0008FEF6896E6E00C947A2DA8E1B0E0EBEF8D
:1007F000F3E00C945E2D69837A838B839C832D8335
:100800003E834F83588789E0E82EF12CEC0EFD1EC5
:10081000CE010196B7010E9446068E010F5E1F4F62
:10082000CE010596B8010E9446068985823040F0C7
:100830008989823028F0C701B8010E94BE0601C034
:100840008FEF6896E6E00C947A2DA8E1B0E0EBE239
:10085000F4E00C945E2D69837A838B839C832D83D3
:100860003E834F83588789E0E82EF12CEC0EFD1E65
:10087000CE010196B7010E9446068E010F5E1F4F02
:10088000CE010596B8010E9446068985823040F067
:100890008989823028F0C701B8010E94BE0601C0D4
:1008A00081E06896E6E00C947A2DACE0B0E0EBE5F0
:1008B000F4E00C94622D69837A838B839C83CE0150
:1008C0000196BE016B5F7F4F0E9446068D8182308C
:1008D00061F1823050F1843021F48E81882351F10E
:1008E0002EC02F81388537FD20C06E812F31310514
:1008F0001CF06623F9F023C08EE190E0821B930B7D
:1009000029853A854B855C8504C056954795379572
:1009100027958A95D2F76623B1F05095409530958A
:1009200021953F4F4F4F5F4F0EC020E030E040E039
:1009300050E009C02FEF3FEF4FEF5FE704C020E02A
:1009400030E040E050E8B901CA012C96E2E00C9496
:100950007E2DA8E0B0E0EFEAF4E00C945A2D7B0184
:100960008C01611571058105910519F482E0898377
:1009700060C083E089838EE1C82ED12CDC82CB82DB
:10098000ED82FE820F831887C801B7010E942205FD
:10099000FC013197F7FF3BC0222733272E1B3F0B6B
:1009A00057016801022E04C0D694C794B794A79447
:1009B0000A94D2F740E050E060E070E081E090E01F
:1009C000A0E0B0E004C0880F991FAA1FBB1F2A95A2
:1009D000D2F70197A109B1098E219F21A023B1234C
:1009E0000097A105B10521F041E050E060E070E022
:1009F0004A295B296C297D294D835E836F83788723
:100A00008EE190E08E1B9F0B9C838B8312C03097EE
:100A100081F00E2E04C0EE0CFF1C001F111F0A9463
:100A2000D2F7ED82FE820F831887CE1ADF0ADC82AE
:100A3000CB821A82CE0101960E9471052896EAE0C7
:100A40000C94762DEF92FF920F931F937B018C01F4
:100A500080E0E81680E0F80681E0080780E01807EB
:100A600088F48FEFE816F1040105110531F028F044
:100A700088E090E0A0E0B0E017C080E090E0A0E067
:100A8000B0E012C080E0E81680E0F80680E00807D9
:100A900081E0180728F088E190E0A0E0B0E004C011
:100AA00080E190E0A0E0B0E020E230E040E050E003
:100AB000281B390B4A0B5B0B04C016950795F7945E
:100AC000E7948A95D2F7F701EF5CFA4F8081281BF3
:100AD000310941095109C9011F910F91FF90EF9010
:100AE0000895DF92EF92FF920F931F93FC01E48031
:100AF000F58006811781D1808081823048F480E0C2
:100B000090E0A0E1B0E0E82AF92A0A2B1B2BA5C04F
:100B1000843009F49FC0823021F4EE24FF24870141
:100B200005C0E114F1040105110519F4E0E0F0E05D
:100B300096C0628173819FEF623879070CF05BC0C9
:100B400022E83FEF261B370B2A3131052CF020E03D
:100B500030E040E050E02AC0B801A701022E04C0F6
:100B600076956795579547950A94D2F781E090E07E
:100B7000A0E0B0E004C0880F991FAA1FBB1F2A95F0
:100B8000D2F70197A109B1098E219F21A023B1239A
:100B90000097A105B10521F081E090E0A0E0B0E070
:100BA0009A01AB01282B392B4A2B5B2BDA01C901A7
:100BB0008F779070A070B07080349105A105B10559
:100BC00039F427FF09C0205C3F4F4F4F5F4F04C0EF
:100BD000215C3F4F4F4F5F4FE0E0F0E02030A0E05E
:100BE0003A07A0E04A07A0E45A0710F0E1E0F0E07D
:100BF00079018A0127C06038710564F5FB01E1586D
:100C0000FF4FD801C7018F779070A070B07080340B
:100C10009105A105B10539F4E7FE0DC080E490E02F
:100C2000A0E0B0E004C08FE390E0A0E0B0E0E80E08
:100C3000F91E0A1F1B1F17FF05C016950795F7948D
:100C4000E794319687E016950795F794E7948A958F
:100C5000D1F705C0EE24FF248701EFEFF0E06E2FFF
:100C6000679566276795902F9F77D794DD24D79453
:100C70008E2F8695492F462B582F5D29B701CA0123
:100C80001F910F91FF90EF90DF900895FC01DB0121
:100C9000408151812281622F6F7770E0221F2227CD
:100CA000221F9381892F880F822B282F30E0991FD4
:100CB0009927991F11969C93119721153105A9F534
:100CC000411551056105710511F482E037C082E8D4
:100CD0009FEF13969C938E9312979A01AB0167E056
:100CE000220F331F441F551F6A95D1F783E08C9361
:100CF0000DC0220F331F441F551F12968D919C91DA
:100D00001397019713969C938E931297203080E04F
:100D1000380780E0480780E4580758F314962D936D
:100D20003D934D935C93179708952F3F310579F4C8
:100D3000411551056105710519F484E08C930895FE
:100D400064FF03C081E08C9312C01C9210C02F5727
:100D5000304013963C932E93129783E08C9387E058
:100D6000440F551F661F771F8A95D1F7706414963C
:100D70004D935D936D937C93179708951F93DC01BA
:100D8000FB019C91923008F447C08081823008F4C6
:100D900043C0943051F411961C91843099F58181AF
:100DA000682F70E0611B71093FC0843021F09230E0
:100DB00031F48230B9F18181882389F12DC01196F7
:100DC0001C9111978230F1F081811817D9F4129695
:100DD0002D913C911397828193818217930794F010
:100DE00028173907BCF014968D919D910D90BC91F8
:100DF000A02D2481358146815781281739074A075C
:100E00005B0718F4112341F00AC082179307A40767
:100E1000B50740F4112319F061E070E005C06FEFF1
:100E20007FEF02C060E070E0CB011F910895DF9377
:100E3000CF93CDB7DEB7E7E2F0E080E48083E6E26F
:100E4000F0E087E88083CF91DF910895DF93CF931F
:100E50000F92CDB7DEB78983A7E2B0E0E7E2F0E01A
:100E60008081982F987F8981892B8C93A6E2B0E0AE
:100E7000E6E2F0E0808180648C93E6E2F0E080813D
:100E8000882F90E0807190700097B9F3E4E2F0E071
:100E9000808191810F90CF91DF910895DF93CF935F
:100EA00000D000D000D0CDB7DEB78E831D821C826B
:100EB0001B821A8219828E810E9426079C838B8353
:100EC0008B819C81CC01A0E0B0E0BC01CD010E94EF
:100ED000A904DC01CB01BC01CD0126EF38E24CE9CD
:100EE00050E40E941F02DC01CB01BC01CD010E9435
:100EF0004900DC01CB019A83898389819A812AE0A8
:100F000030E0B9010E943E2DCB018D838D81269664
:100F10000FB6F894DEBF0FBECDBFCF91DF9108951D
:100F2000DF93CF93CDB7DEB7EAE2F0E088E98083C4
:100F3000E0E4F0E086E88083E9E2F0E083E38083A8
:100F4000E0E4F0E01082CF91DF910895DF93CF933A
:100F50000F92CDB7DEB78983EBE2F0E08081882F76
:100F600090E0807290700097B9F3ECE2F0E0898134
:100F700080830F90CF91DF910895DF93CF93CDB70A
:100F8000DEB7EBE2F0E080818823DCF7ECE2F0E012
:100F90008081CF91DF910895DF93CF9300D000D06F
:100FA000CDB7DEB79C838B831A8219820FC029814B
:100FB0003A818B819C81FC01E20FF31F80810E94AA
:100FC000A60789819A8101969A83898329813A812A
:100FD0008B819C81FC01E20FF31F8081882339F70C
:100FE0000F900F900F900F90CF91DF910895DF93A6
:100FF000CF93CDB7DEB766970FB6F894DEBF0FBEBE
:10100000CDBF9E8B8D8B8D899E899E012F5F3F4F1B
:10101000B9014AE050E00E94C12DCE0101960E9424
:10102000CC0766960FB6F894DEBF0FBECDBFCF914A
:10103000DF9108950F931F93DF93CF93CDB7DEB762
:10104000C455D0400FB6F894DEBF0FBECDBFA4E3A9
:10105000B0E0E4E3F0E0808180688C93A4E3B0E04A
:10106000E4E3F0E0808180648C93A7E3B0E0E7E301
:10107000F0E08081806F8C93A8E3B0E0E8E3F0E0DB
:1010800080818C9380E30E942615FE01EF5AFF4F6A
:1010900080E090E0A0E2B1E480839183A283B383F7
:1010A0008E01035B1F4FFE01EF5AFF4F608171817C
:1010B0008281938120E030E04AEF54E40E941F02D5
:1010C000DC01CB01F80180839183A283B383FE010D
:1010D000E35BFF4F608171818281938120E030E08A
:1010E00040E85FE30E942504882344F4FE01E55BA9
:1010F000FF4F81E090E09183808364C0FE01E35B59
:10110000FF4F608171818281938120E03FEF4FE743
:1011100057E40E94C50318160CF043C0FE01EF5AB5
:10112000FF4F608171818281938120E030E040E255
:1011300051E40E941F02DC01CB018E01055B1F4FB1
:10114000BC01CD010E944900DC01CB01F801918373
:1011500080831FC0FE01E75BFF4F88EC90E0918326
:101160008083FE01E75BFF4F808191810197F1F75A
:10117000FE01E75BFF4F91838083DE01A55BBF4FDC
:10118000FE01E55BFF4F80819181019711969C9351
:101190008E93FE01E55BFF4F808191810097D1F630
:1011A00027C08E01055B1F4FFE01E35BFF4F60818F
:1011B0007181828193810E944900DC01CB01F80199
:1011C00091838083DE01A95BBF4FFE01E55BFF4F8A
:1011D000808191818D939C93FE01E95BFF4F80811B
:1011E00091810197F1F7FE01E95BFF4F91838083C5
:1011F00080E30E942615FE01ED5BFF4F80E090E04A
:10120000A0E2B1E480839183A283B3838E01015C69
:101210001F4FFE01ED5BFF4F6081718182819381E1
:1012200020E030E04AEF54E40E941F02DC01CB01D1
:10123000F80180839183A283B383FE01FF966081CE
:1012400071818281938120E030E040E85FE30E9479
:10125000250488232CF481E090E09EAF8DAF46C03A
:10126000FE01FF96608171818281938120E03FEFD2
:101270004FE757E40E94C503181664F5FE01ED5BC5
:10128000FF4F608171818281938120E030E040E2F4
:1012900051E40E941F02DC01CB01BC01CD010E9480
:1012A0004900DC01CB019EAF8DAF0FC088EC90E010
:1012B0009CAF8BAF8BAD9CAD0197F1F79CAF8BAF23
:1012C0008DAD9EAD01979EAF8DAF8DAD9EAD00975C
:1012D00069F716C0FE01FF9660817181828193815A
:1012E0000E944900DC01CB019EAF8DAF8DAD9EAD5C
:1012F0009AAF89AF89AD9AAD0197F1F79AAF89AFEF
:1013000080E30E94261580E090E0A0E2B1E48DAB7E
:101310009EABAFABB8AF6DA97EA98FA998AD20E009
:1013200030E04AEF54E40E941F02DC01CB0189AB9C
:101330009AABABABBCAB69A97AA98BA99CA920E0FD
:1013400030E040E85FE30E94250488232CF481E02C
:1013500090E098AB8FA73FC069A97AA98BA99CA9F7
:1013600020E03FEF4FE757E40E94C50318164CF505
:101370006DA97EA98FA998AD20E030E040E251E44C
:101380000E941F02DC01CB01BC01CD010E9449007B
:10139000DC01CB0198AB8FA70FC088EC90E09EA733
:1013A0008DA78DA59EA50197F1F79EA78DA78FA567
:1013B00098A9019798AB8FA78FA598A9009769F76F
:1013C00014C069A97AA98BA99CA90E944900DC01D3
:1013D000CB0198AB8FA78FA598A99CA78BA78BA5AE
:1013E0009CA50197F1F79CA78BA780E20E94261588
:1013F00080E090E0A0E2B1E48FA398A7A9A7BAA7E4
:101400006FA178A589A59AA520E030E04AEF54E4C1
:101410000E941F02DC01CB018BA39CA3ADA3BEA342
:101420006BA17CA18DA19EA120E030E040E85FE3AC
:101430000E94250488232CF481E090E09AA389A3DC
:101440003FC06BA17CA18DA19EA120E03FEF4FE7A3
:1014500057E40E94C50318164CF56FA178A589A51D
:101460009AA520E030E040E251E40E941F02DC0136
:10147000CB01BC01CD010E944900DC01CB019AA344
:1014800089A30FC088EC90E098A38F8F8F8D98A1CF
:101490000197F1F798A38F8F89A19AA101979AA339
:1014A00089A389A19AA1009769F714C06BA17CA1B7
:1014B0008DA19EA10E944900DC01CB019AA389A3C2
:1014C00089A19AA19E8F8D8F8D8D9E8D0197F1F7A9
:1014D0009E8F8D8F80E090E0A0E2B1E4898F9A8F9B
:1014E000AB8FBC8F698D7A8D8B8D9C8D20E030E029
:1014F0004AEF54E40E941F02DC01CB018D8B9E8BCE
:10150000AF8BB88F6D897E898F89988D20E030E010
:1015100040E85FE30E94250488232CF481E090E0FA
:101520009C8B8B8B3FC06D897E898F89988D20E045
:101530003FEF4FE757E40E94C50318164CF5698D3D
:101540007A8D8B8D9C8D20E030E040E251E40E944A
:101550001F02DC01CB01BC01CD010E944900DC016E
:10156000CB019C8B8B8B0FC088EC90E09A8B898B86
:1015700089899A890197F1F79A8B898B8B899C8944
:1015800001979C8B8B8B8B899C89009769F714C082
:101590006D897E898F89988D0E944900DC01CB017D
:1015A0009C8B8B8B8B899C89988B8F878F85988957
:1015B0000197F1F7988B8F8788E20E94680B8CE087
:1015C0000E94680B86E00E94680B80E80E94680B0E
:1015D00080E090E0A0EAB1E48B879C87AD87BE876E
:1015E0006B857C858D859E8520E030E04AEF54E454
:1015F0000E941F02DC01CB018F839887A987BA87DD
:101600006F81788589859A8520E030E040E85FE346
:101610000E94250488232CF481E090E09E838D8332
:101620003FC06F81788589859A8520E03FEF4FE73D
:1016300057E40E94C50318164CF56B857C858D8593
:101640009E8520E030E040E251E40E941F02DC0170
:10165000CB01BC01CD010E944900DC01CB019E837E
:101660008D830FC088EC90E09C838B838B819C8161
:101670000197F1F79C838B838D819E8101979E83D7
:101680008D838D819E81009769F714C06F81788565
:1016900089859A850E944900DC01CB019E838D8358
:1016A0008D819E819A83898389819A810197F1F73F
:1016B0009A8389830E947513CC5ADF4F0FB6F89432
:1016C000DEBF0FBECDBFCF91DF911F910F91089567
:1016D0000F931F93DF93CF93CDB7DEB7C954D0409C
:1016E0000FB6F894DEBF0FBECDBFFE01E75BFF4F24
:1016F0008083A5E3B0E0E5E3F0E080818F7B8C930D
:10170000A8E3B0E0E8E3F0E080818F778C93A8E372
:10171000B0E0E8E3F0E080818F7B8C93A8E3B0E059
:10172000E8E3F0E080818F7D8C93A8E3B0E0E8E30C
:10173000F0E080818F7E8C93FE01E75BFF4F80811C
:1017400088233CF4A8E3B0E0E8E3F0E0808180681F
:101750008C93FE01E75BFF4F8081882F90E08074BF
:101760009070009739F0A8E3B0E0E8E3F0E0808102
:1017700080648C93FE01E75BFF4F8081882F90E0AF
:1017800080729070009739F0A8E3B0E0E8E3F0E0F1
:10179000808180628C93FE01E75BFF4F8081882F00
:1017A00090E080719070009739F0A8E3B0E0E8E332
:1017B000F0E0808180618C93A5E3B0E0E5E3F0E0A8
:1017C000808180688C93FE01EB5BFF4F80E090E0AE
:1017D000A0E0B0E480839183A283B3838E010F5B8A
:1017E0001F4FFE01EB5BFF4F60817181828193810E
:1017F0002BEA3AEA4AE250E40E941F02DC01CB01E4
:10180000F80180839183A283B383FE01EF5BFF4FD6
:10181000608171818281938120E030E040E85FE364
:101820000E942504882334F481E0FE01E05CFF4F30
:1018300080839DC0FE01EF5BFF4F608171818281DB
:10184000938120E030E04FE753E40E94C50318166F
:101850000CF07EC0FE01EB5BFF4F608171818281E5
:10186000938120E030E04AE754E40E941903DC0150
:10187000CB018CAF9DAFAEAFBFAF6CAD7DAD8EADCC
:101880009FAD20E030E04AEF54E40E941F02DC01EB
:10189000CB0188AF99AFAAAFBBAF68AD79AD8AADC8
:1018A0009BAD20E030E040E85FE30E942504882300
:1018B0002CF481E090E09FAB8EAB3FC068AD79AD7A
:1018C0008AAD9BAD20E03FEF4FE757E40E94C50390
:1018D00018164CF56CAD7DAD8EAD9FAD20E030E0BF
:1018E00040E251E40E941F02DC01CB01BC01CD01AA
:1018F0000E944900DC01CB019FAB8EAB0FC088EC8E
:1019000090E09DAB8CAB8CA99DA90197F1F79DABA5
:101910008CAB8EA99FA901979FAB8EAB8EA99FA977
:10192000009769F72DC068AD79AD8AAD9BAD0E9477
:101930004900DC01CB019FAB8EAB8EA99FA99BAB6D
:101940008AAB8AA99BA90197F1F79BAB8AAB18C018
:10195000FE01EF5BFF4F60817181828193810E9464
:101960004900DC01CB01FE01E05CFF4F8083FE01FA
:10197000E05CFF4F808189AB89A98A95F1F789AB3B
:10198000A5E3B0E0E5E3F0E080818F778C93A8E3F6
:10199000B0E0E8E3F0E080818F778C93A8E3B0E0DB
:1019A000E8E3F0E080818F7B8C93A8E3B0E0E8E38C
:1019B000F0E080818F7D8C93A8E3B0E0E8E3F0E075
:1019C00080818F7E8C93FE01E75BFF4F8081882FA3
:1019D00090E088709070009739F0A8E3B0E0E8E3F9
:1019E000F0E0808180688C93FE01E75BFF4F80818F
:1019F000882F90E084709070009739F0A8E3B0E0F1
:101A0000E8E3F0E0808180648C93FE01E75BFF4FA8
:101A10008081882F90E082709070009739F0A8E361
:101A2000B0E0E8E3F0E0808180628C93FE01E75B48
:101A3000FF4F8081882F90E081709070882339F06B
:101A4000A8E3B0E0E8E3F0E0808180618C93A5E357
:101A5000B0E0E5E3F0E0808180688C9380E090E086
:101A6000A0E0B0E48DA79EA7AFA7B8AB6DA57EA5FB
:101A70008FA598A92BEA3AEA4AE250E40E941F0295
:101A8000DC01CB0189A79AA7ABA7BCA769A57AA55A
:101A90008BA59CA520E030E040E85FE30E94250490
:101AA00088231CF481E088A791C069A57AA58BA53D
:101AB0009CA520E030E04FE753E40E94C5031816D0
:101AC0000CF07BC06DA57EA58FA598A920E030E025
:101AD0004AE754E40E941903DC01CB018CA39DA3C7
:101AE000AEA3BFA36CA17DA18EA19FA120E030E099
:101AF0004AEF54E40E941F02DC01CB0188A399A3A2
:101B0000AAA3BBA368A179A18AA19BA120E030E090
:101B100040E85FE30E94250488232CF481E090E0F4
:101B20009F8F8E8F3FC068A179A18AA19BA120E0E1
:101B30003FEF4FE757E40E94C50318164CF56CA120
:101B40007DA18EA19FA120E030E040E251E40E94FF
:101B50001F02DC01CB01BC01CD010E944900DC0168
:101B6000CB019F8F8E8F0FC088EC90E09D8F8C8F64
:101B70008C8D9D8D0197F1F79D8F8C8F8E8D9F8D14
:101B800001979F8F8E8F8E8D9F8D009769F724C050
:101B900068A179A18AA19BA10E944900DC01CB0127
:101BA0009F8F8E8F8E8D9F8D9B8F8A8F8A8D9B8D21
:101BB0000197F1F79B8F8A8F0FC069A57AA58BA536
:101BC0009CA50E944900DC01CB0188A788A5898FCC
:101BD000898D8A95F1F7898FA5E3B0E0E5E3F0E020
:101BE00080818F778C9380E090E0A6E9B3E48D8BC1
:101BF0009E8BAF8BB88F6D897E898F89988D2BEAEC
:101C00003AEA4AE250E40E941F02DC01CB01898BD0
:101C10009A8BAB8BBC8B69897A898B899C8920E0F4
:101C200030E040E85FE30E94250488231CF481E053
:101C3000888B91C069897A898B899C8920E030E002
:101C40004FE753E40E94C50318160CF07BC06D8962
:101C50007E898F89988D20E030E04AE754E40E9425
:101C60001903DC01CB018C879D87AE87BF876C850C
:101C70007D858E859F8520E030E04AEF54E40E9408
:101C80001F02DC01CB0188879987AA87BB876885FB
:101C900079858A859B8520E030E040E85FE30E94FB
:101CA000250488232CF481E090E09F838E833FC03D
:101CB000688579858A859B8520E03FEF4FE757E46B
:101CC0000E94C50318164CF56C857D858E859F8511
:101CD00020E030E040E251E40E941F02DC01CB0131
:101CE000BC01CD010E944900DC01CB019F838E83A2
:101CF0000FC088EC90E09D838C838C819D8101973F
:101D0000F1F79D838C838E819F8101979F838E83C2
:101D10008E819F81009769F724C0688579858A85BF
:101D20009B850E944900DC01CB019F838E838E81BD
:101D30009F819B838A838A819B810197F1F79B8393
:101D40008A830FC069897A898B899C890E9449009E
:101D5000DC01CB01888B8889898389818A95F1F799
:101D60008983C75BDF4F0FB6F894DEBF0FBECDBFD0
:101D7000CF91DF911F910F9108950F931F93DF93E0
:101D8000CF93CDB7DEB7C954D0400FB6F894DEBFBD
:101D90000FBECDBFFE01E75BFF4F8083A5E3B0E040
:101DA000E5E3F0E0808180648C93A8E3B0E0E8E3B1
:101DB000F0E080818F778C93A8E3B0E0E8E3F0E077
:101DC00080818F7B8C93A8E3B0E0E8E3F0E0808132
:101DD0008F7D8C93A8E3B0E0E8E3F0E080818F7E14
:101DE0008C93FE01E75BFF4F808188233CF4A8E3DE
:101DF000B0E0E8E3F0E0808180688C93FE01E75B6F
:101E0000FF4F8081882F90E080749070009739F0A8
:101E1000A8E3B0E0E8E3F0E0808180648C93FE0109
:101E2000E75BFF4F8081882F90E080729070009771
:101E300039F0A8E3B0E0E8E3F0E0808180628C93C1
:101E4000FE01E75BFF4F8081882F90E080719070EA
:101E5000009739F0A8E3B0E0E8E3F0E0808180612A
:101E60008C93A5E3B0E0E5E3F0E0808180688C939B
:101E7000FE01EB5BFF4F80E090E0A0E0B0E48083E8
:101E80009183A283B3838E010F5B1F4FFE01EB5B37
:101E9000FF4F60817181828193812BEA3AEA4AE2A5
:101EA00050E40E941F02DC01CB01F8018083918382
:101EB000A283B383FE01EF5BFF4F6081718182815A
:101EC000938120E030E040E85FE30E94250488230E
:101ED00034F481E0FE01E05CFF4F80839DC0FE0191
:101EE000EF5BFF4F608171818281938120E030E060
:101EF0004FE753E40E94C50318160CF07EC0FE01A4
:101F0000EB5BFF4F608171818281938120E030E043
:101F10004AE754E40E941903DC01CB018CAF9DAF6A
:101F2000AEAFBFAF6CAD7DAD8EAD9FAD20E030E00C
:101F30004AEF54E40E941F02DC01CB0188AF99AF45
:101F4000AAAFBBAF68AD79AD8AAD9BAD20E030E004
:101F500040E85FE30E94250488232CF481E090E0B0
:101F60009FAB8EAB3FC068AD79AD8AAD9BAD20E035
:101F70003FEF4FE757E40E94C50318164CF56CADD0
:101F80007DAD8EAD9FAD20E030E040E251E40E9497
:101F90001F02DC01CB01BC01CD010E944900DC0124
:101FA000CB019FAB8EAB0FC088EC90E09DAB8CABB0
:101FB0008CA99DA90197F1F79DAB8CAB8EA99FA928
:101FC00001979FAB8EAB8EA99FA9009769F72DC093
:101FD00068AD79AD8AAD9BAD0E944900DC01CB01B3
:101FE0009FAB8EAB8EA99FA99BAB8AAB8AA99BA9FD
:101FF0000197F1F79BAB8AAB18C0FE01EF5BFF4F77
:1020000060817181828193810E944900DC01CB0152
:10201000FE01E05CFF4F8083FE01E05CFF4F8081AA
:1020200089AB89A98A95F1F789ABA5E3B0E0E5E32F
:10203000F0E080818F778C93A8E3B0E0E8E3F0E0F4
:1020400080818F778C93A8E3B0E0E8E3F0E08081B3
:102050008F7B8C93A8E3B0E0E8E3F0E080818F7D94
:102060008C93A8E3B0E0E8E3F0E080818F7E8C936E
:10207000FE01E75BFF4F8081882F90E088709070B1
:10208000009739F0A8E3B0E0E8E3F0E080818068F1
:102090008C93FE01E75BFF4F8081882F90E0847076
:1020A0009070009739F0A8E3B0E0E8E3F0E08081B9
:1020B00080648C93FE01E75BFF4F8081882F90E066
:1020C00082709070009739F0A8E3B0E0E8E3F0E0A8
:1020D000808180628C93FE01E75BFF4F8081882FB7
:1020E00090E081709070882339F0A8E3B0E0E8E3D5
:1020F000F0E0808180618C93A5E3B0E0E5E3F0E05F
:10210000808180688C9380E090E0A0E0B0E48DA7AF
:102110009EA7AFA7B8AB6DA57EA58FA598A92BEA02
:102120003AEA4AE250E40E941F02DC01CB0189A78F
:102130009AA7ABA7BCA769A57AA58BA59CA520E00B
:1021400030E040E85FE30E94250488231CF481E02E
:1021500088A791C069A57AA58BA59CA520E030E051
:102160004FE753E40E94C50318160CF07BC06DA521
:102170007EA58FA598A920E030E04AE754E40E94AC
:102180001903DC01CB018CA39DA3AEA3BFA36CA15B
:102190007DA18EA19FA120E030E04AEF54E40E948F
:1021A0001F02DC01CB0188A399A3AAA3BBA368A14A
:1021B00079A18AA19BA120E030E040E85FE30E9482
:1021C000250488232CF481E090E09F8F8E8F3FC000
:1021D00068A179A18AA19BA120E03FEF4FE757E4D6
:1021E0000E94C50318164CF56CA17DA18EA19FA17C
:1021F00020E030E040E251E40E941F02DC01CB010C
:10220000BC01CD010E944900DC01CB019F8F8E8F64
:102210000FC088EC90E09D8F8C8F8C8D9D8D0197E9
:10222000F1F79D8F8C8F8E8D9F8D01979F8F8E8F55
:102230008E8D9F8D009769F724C068A179A18AA12E
:102240009BA10E944900DC01CB019F8F8E8F8E8D58
:102250009F8D9B8F8A8F8A8D9B8D0197F1F79B8F26
:102260008A8F0FC069A57AA58BA59CA50E944900FD
:10227000DC01CB0188A788A5898F898D8A95F1F724
:10228000898FA5E3B0E0E5E3F0E080818F778C9360
:1022900080E090E0A6E9B3E48D8B9E8BAF8BB88F86
:1022A0006D897E898F89988D2BEA3AEA4AE250E45B
:1022B0000E941F02DC01CB01898B9A8BAB8BBC8BFC
:1022C00069897A898B899C8920E030E040E85FE366
:1022D0000E94250488231CF481E0888B91C06989C1
:1022E0007A898B899C8920E030E04FE753E40E9493
:1022F000C50318160CF07BC06D897E898F89988D77
:1023000020E030E04AE754E40E941903DC01CB01ED
:102310008C879D87AE87BF876C857D858E859F85E1
:1023200020E030E04AEF54E40E941F02DC01CB01C0
:1023300088879987AA87BB87688579858A859B85E1
:1023400020E030E040E85FE30E94250488232CF47D
:1023500081E090E09F838E833FC0688579858A8580
:102360009B8520E03FEF4FE757E40E94C503181616
:102370004CF56C857D858E859F8520E030E040E2C0
:1023800051E40E941F02DC01CB01BC01CD010E947F
:102390004900DC01CB019F838E830FC088EC90E065
:1023A0009D838C838C819D810197F1F79D838C8324
:1023B0008E819F8101979F838E838E819F8100975D
:1023C00069F724C0688579858A859B850E944900C4
:1023D000DC01CB019F838E838E819F819B838A83C7
:1023E0008A819B810197F1F79B838A830FC069895A
:1023F0007A898B899C890E944900DC01CB01888BFA
:102400008889898389818A95F1F78983C75BDF4F42
:102410000FB6F894DEBF0FBECDBFCF91DF911F91F5
:102420000F910895DF93CF93CDB7DEB764970FB6C2
:10243000F894DEBF0FBECDBF8B8B6C8B80E88F878F
:1024400080EC888B84E9898B84ED8A8B8B89882F3B
:1024500090E09C0121503040CE010F96FC01E20F2C
:10246000F31F90818C89890F81500E94680B80E056
:1024700090E0A0EAB1E48B879C87AD87BE876B852F
:102480007C858D859E8520E030E04AEF54E40E94F3
:102490001F02DC01CB018F839887A987BA876F81E0
:1024A000788589859A8520E030E040E85FE30E94E6
:1024B000250488232CF481E090E09E838D833FC027
:1024C0006F81788589859A8520E03FEF4FE757E453
:1024D0000E94C50318164CF56B857C858D859E85FD
:1024E00020E030E040E251E40E941F02DC01CB0119
:1024F000BC01CD010E944900DC01CB019E838D838C
:102500000FC088EC90E09C838B838B819C8101972A
:10251000F1F79C838B838D819E8101979E838D83B0
:102520008D819E81009769F714C06F8178858985B8
:102530009A850E944900DC01CB019E838D838D81A9
:102540009E819A83898389819A810197F1F79A8381
:10255000898364960FB6F894DEBF0FBECDBFCF91CE
:10256000DF910895DF93CF93CDB7DEB72A970FB6EB
:10257000F894DEBF0FBECDBF998788876A8719821E
:1025800086E0FE013296DF01982F1D929A95E9F7B9
:10259000888599859E012E5F3F4FB9014AE050E042
:1025A0000E94C12D198215C08981982F9F5F8A854D
:1025B000692F0E9412128981282F30E0CE010296E5
:1025C000FC01E20FF31F80810E94BD0E89818F5FA5
:1025D00089838981282F30E0CE010296FC01E20F29
:1025E000F31F8081882301F72A960FB6F894DEBF87
:1025F0000FBECDBFCF91DF910895DF93CF9300D071
:102600000F92CDB7DEB79B838A8319820EC0898172
:10261000282F30E08A819B81FC01E20FF31F80812B
:102620000E94BD0E89818F5F89838981282F30E0C8
:102630008A819B81FC01E20FF31F8081882339F797
:102640000F900F900F90CF91DF910895DF93CF936C
:1026500000D00F92CDB7DEB79B838A8319820E9488
:1026600075130EC08981282F30E08A819B81FC017F
:10267000E20FF31F80810E94BD0E89818F5F8983E5
:102680008981282F30E08A819B81FC01E20FF31FB2
:102690008081882339F70F900F900F90CF91DF91B1
:1026A0000895DF93CF9300D000D0CDB7DEB79B83E2
:1026B0008A836C8319820EC08981282F30E08A8139
:1026C0009B81FC01E20FF31F80810E94BD0E898176
:1026D0008F5F898399818C81981770F30F900F9089
:1026E0000F900F90CF91DF910895DF93CF93CDB7E7
:1026F000DEB7A6970FB6F894DEBF0FBECDBF81E060
:102700000E94680B80E090E0A0E0B0E48BA39CA363
:10271000ADA3BEA36BA17CA18DA19EA12BEA3AEA39
:102720004AE250E40E941F02DC01CB018F8F98A384
:10273000A9A3BAA36F8D78A189A19AA120E030E066
:1027400040E85FE30E94250488231CF481E08E8F1B
:1027500091C06F8D78A189A19AA120E030E04FE768
:1027600053E40E94C50318160CF07BC06BA17CA13A
:102770008DA19EA120E030E04AE754E40E941903B5
:10278000DC01CB018A8F9B8FAC8FBD8F6A8D7B8DD7
:102790008C8D9D8D20E030E04AEF54E40E941F02B2
:1027A000DC01CB018E8B9F8BA88FB98F6E897F89BF
:1027B000888D998D20E030E040E85FE30E94250499
:1027C00088232CF481E090E09D8B8C8B3FC06E8938
:1027D0007F89888D998D20E03FEF4FE757E40E9475
:1027E000C50318164CF56A8D7B8D8C8D9D8D20E070
:1027F00030E040E251E40E941F02DC01CB01BC0149
:10280000CD010E944900DC01CB019D8B8C8B0FC058
:1028100088EC90E09B8B8A8B8A899B890197F1F7E2
:102820009B8B8A8B8C899D8901979D8B8C8B8C8946
:102830009D89009769F724C06E897F89888D998D5D
:102840000E944900DC01CB019D8B8C8B8C899D897A
:10285000998B888B888999890197F1F7998B888B57
:102860000FC06F8D78A189A19AA10E944900DC0157
:10287000CB018E8F8E8D8F878F858A95F1F78F870D
:1028800080E090E0A0E2B1E48B879C87AD87BE87B3
:102890006B857C858D859E8520E030E04AEF54E491
:1028A0000E941F02DC01CB018F839887A987BA871A
:1028B0006F81788589859A8520E030E040E85FE384
:1028C0000E94250488232CF481E090E09E838D8370
:1028D0003FC06F81788589859A8520E03FEF4FE77B
:1028E00057E40E94C50318164CF56B857C858D85D1
:1028F0009E8520E030E040E251E40E941F02DC01AE
:10290000CB01BC01CD010E944900DC01CB019E83BB
:102910008D830FC088EC90E09C838B838B819C819E
:102920000197F1F79C838B838D819E8101979E8314
:102930008D838D819E81009769F714C06F817885A2
:1029400089859A850E944900DC01CB019E838D8395
:102950008D819E819A83898389819A810197F1F77C
:102960009A838983A6960FB6F894DEBF0FBECDBFBB
:10297000CF91DF910895DF93CF9300D000D0CDB7F2
:10298000DEB78A837C836B838A818830F8F48A81FE
:10299000882F90E00896880F991F880F991F880F3D
:1029A000991F0E94680B19820EC08981282F30E080
:1029B0008B819C81FC01E20FF31F80810E94BD0E80
:1029C00089818F5F89838981883078F30F900F9098
:1029D0000F900F90CF91DF910895DF93CF9300D0A8
:1029E00000D0CDB7DEB79C838B831A821982EB812E
:1029F000FC818081807F8983898182958F70898322
:102A000089818A3020F08981895C898303C089812A
:102A1000805D898389810E94BD0EEB81FC8180816C
:102A20008F708A838A818A3020F08A81895C8A83C8
:102A300003C08A81805D8A838A810E94BD0E0F90C7
:102A40000F900F900F90CF91DF910895DF93CF9368
:102A5000CDB7DEB76D970FB6F894DEBF0FBECDBF12
:102A60008D8FE8E3F0E08D8D8083A5E3B0E0E5E3B2
:102A7000F0E080818F7B8C93A5E3B0E0E5E3F0E0AC
:102A8000808180688C9380E090E0A0E8BFE3898F2C
:102A90009A8FAB8FBC8F698D7A8D8B8D9C8D20E04A
:102AA00030E04AEF54E40E941F02DC01CB018D8B21
:102AB0009E8BAF8BB88F6D897E898F89988D20E032
:102AC00030E040E85FE30E94250488232CF481E095
:102AD00090E09C8B8B8B3FC06D897E898F89988D10
:102AE00020E03FEF4FE757E40E94C50318164CF56E
:102AF000698D7A8D8B8D9C8D20E030E040E251E431
:102B00000E941F02DC01CB01BC01CD010E944900E3
:102B1000DC01CB019C8B8B8B0FC088EC90E09A8BF7
:102B2000898B89899A890197F1F79A8B898B8B898F
:102B30009C8901979C8B8B8B8B899C89009769F76B
:102B400014C06D897E898F89988D0E944900DC01AF
:102B5000CB019C8B8B8B8B899C89988B8F878F85E6
:102B600098890197F1F7988B8F87A5E3B0E0E5E3AB
:102B7000F0E080818F778C9380E090E0A0E8BFE365
:102B80008B879C87AD87BE876B857C858D859E8571
:102B900020E030E04AEF54E40E941F02DC01CB0148
:102BA0008F839887A987BA876F81788589859A8569
:102BB00020E030E040E85FE30E94250488232CF405
:102BC00081E090E09E838D833FC06F817885898509
:102BD0009A8520E03FEF4FE757E40E94C50318169F
:102BE0004CF56B857C858D859E8520E030E040E24C
:102BF00051E40E941F02DC01CB01BC01CD010E9407
:102C00004900DC01CB019E838D830FC088EC90E0EE
:102C10009C838B838B819C810197F1F79C838B83B1
:102C20008D819E8101979E838D838D819E810097EA
:102C300069F714C06F81788589859A850E9449005B
:102C4000DC01CB019E838D838D819E819A83898354
:102C500089819A810197F1F79A8389836D960FB6DE
:102C6000F894DEBF0FBECDBFCF91DF910895DF9303
:102C7000CF93CDB7DEB72E970FB6F894DEBF0FBE59
:102C8000CDBF80EC0E94680B80E090E0A0EAB1E448
:102C90008B879C87AD87BE876B857C858D859E8560
:102CA00020E030E04AEF54E40E941F02DC01CB0137
:102CB0008F839887A987BA876F81788589859A8558
:102CC00020E030E040E85FE30E94250488232CF4F4
:102CD00081E090E09E838D833FC06F8178858985F8
:102CE0009A8520E03FEF4FE757E40E94C50318168E
:102CF0004CF56B857C858D859E8520E030E040E23B
:102D000051E40E941F02DC01CB01BC01CD010E94F5
:102D10004900DC01CB019E838D830FC088EC90E0DD
:102D20009C838B838B819C810197F1F79C838B83A0
:102D30008D819E8101979E838D838D819E810097D9
:102D400069F714C06F81788589859A850E9449004A
:102D5000DC01CB019E838D838D819E819A83898343
:102D600089819A810197F1F79A8389832E960FB60C
:102D7000F894DEBF0FBECDBFCF91DF910895DF93F2
:102D8000CF93CDB7DEB729970FB6F894DEBF0FBE4D
:102D9000CDBF99878887198286E0FE013296DF01D0
:102DA000982F1D929A95E9F7888599859E012E5F47
:102DB0003F4FB9014AE050E00E94C12D19820EC078
:102DC0008981282F30E0CE010296FC01E20FF31F2B
:102DD00080810E94BD0E89818F5F89838981282F20
:102DE00030E0CE010296FC01E20FF31F80818823C0
:102DF00039F729960FB6F894DEBF0FBECDBFCF913D
:102E0000DF9108951F920F920FB60F9211242F9306
:102E10008F939F93EF93FF93DF93CF930F92CDB751
:102E2000DEB7EFE5F0E080818983F8948091320687
:102E3000882F90E0ECE2F0E02081FC01ED5CF94F9E
:102E40002083809132068F5F809332068091320614
:102E5000843611F410923206EFE5F0E08981808328
:102E60000F90CF91DF91FF91EF919F918F912F91D3
:102E70000F900FBE0F901F901895DF93CF9300D047
:102E800000D0CDB7DEB79B838A8319828A819B816C
:102E90000E94902D89838981482F50E083E396E03A
:102EA0002A813B81B9010E94992D009729F40E9443
:102EB000831781E08C8301C01C828C810F900F905E
:102EC0000F900F90CF91DF910895DF93CF9300D0B3
:102ED0000F92CDB7DEB79A83898383E396E0298189
:102EE0003A81B9010E94A72D009729F00E9483170B
:102EF00081E08B8301C01B828B810F900F900F901C
:102F0000CF91DF910895DF93CF93CDB7DEB71092C5
:102F1000320683E396E060E070E044E650E00E9411
:102F2000892DCF91DF9108950F931F93DF93CF9356
:102F3000CDB7DEB7C556D0400FB6F894DEBF0FBE92
:102F4000CDBFFE01EB59FF4F1082FE01ED59FF4F3F
:102F5000118210820E949007FE01E15AFF4F80E02B
:102F600090E0AAEFB4E480839183A283B3838E01BF
:102F7000055A1F4FFE01E15AFF4F60817181828126
:102F8000938120E030E04AEF54E40E941F02DC010C
:102F9000CB01F80180839183A283B383FE01E55ABC
:102FA000FF4F608171818281938120E030E040E8B1
:102FB0005FE30E942504882344F4FE01E75AFF4F93
:102FC00081E090E09183808364C0FE01E55AFF4F69
:102FD000608171818281938120E03FEF4FE757E468
:102FE0000E94C50318160CF043C0FE01E15AFF4FC2
:102FF000608171818281938120E030E040E251E480
:103000000E941F02DC01CB018E01075A1F4FBC0139
:10301000CD010E944900DC01CB01F801918380833E
:103020001FC0FE01E95AFF4F88EC90E09183808336
:10303000FE01E95AFF4F808191810197F1F7FE016E
:10304000E95AFF4F91838083DE01A75ABF4FFE01EB
:10305000E75AFF4F80819181019711969C938E933F
:10306000FE01E75AFF4F808191810097D1F627C07A
:103070008E01075A1F4FFE01E55AFF4F6081718193
:10308000828193810E944900DC01CB01F801918388
:103090008083DE01AB5ABF4FFE01E75AFF4F8081AC
:1030A00091818D939C93FE01EB5AFF4F808191811A
:1030B0000197F1F7FE01EB5AFF4F918380830E9445
:1030C000831780E690E00E94CC07BFC0FE01EF5A54
:1030D000FF4F80E090E0A0E8BFE380839183A2836C
:1030E000B3838E01035B1F4FFE01EF5AFF4F6081D8
:1030F00071818281938120E030E04AEF54E40E94A4
:103100001F02DC01CB01F80180839183A283B3838A
:10311000FE01E35BFF4F608171818281938120E03A
:1031200030E040E85FE30E942504882344F4FE0178
:10313000E55BFF4F81E090E09183808364C0FE01F6
:10314000E35BFF4F608171818281938120E03FEFDB
:103150004FE757E40E94C50318160CF043C0FE0168
:10316000EF5AFF4F608171818281938120E030E0CE
:1031700040E251E40E941F02DC01CB018E01055B9D
:103180001F4FBC01CD010E944900DC01CB01F801B9
:10319000918380831FC0FE01E75BFF4F88EC90E0C6
:1031A00091838083FE01E75BFF4F808191810197CE
:1031B000F1F7FE01E75BFF4F91838083DE01A55BA2
:1031C000BF4FFE01E55BFF4F808191810197119612
:1031D0009C938E93FE01E55BFF4F80819181009768
:1031E000D1F627C08E01055B1F4FFE01E35BFF4F49
:1031F00060817181828193810E944900DC01CB0151
:10320000F80191838083DE01A95BBF4FFE01E55B7E
:10321000FF4F808191818D939C93FE01E95BFF4F6D
:10322000808191810197F1F7FE01E95BFF4F918366
:103230008083DE01AD59BF4FFE01ED59FF4F808104
:103240009181019611969C938E93FE01ED59FF4F4B
:1032500080819181F7E0813D9F0768F487E690E0E7
:103260000E943D17882339F48EE690E00E943D17B6
:10327000882309F42BCF0E945C1EFE01EB59FF4FFF
:103280008083FE01EB59FF4F8081833009F08CC0B1
:103290008CE790E00E94CC07FE01ED5BFF4F80E0E1
:1032A00090E0A8ECB3E480839183A283B3838E0182
:1032B000015C1F4FFE01ED5BFF4F608171818281D8
:1032C000938120E030E04AEF54E40E941F02DC01C9
:1032D000CB01F80180839183A283B383FE01FF9623
:1032E000608171818281938120E030E040E85FE37A
:1032F0000E94250488232CF481E090E09EAF8DAFDE
:1033000046C0FE01FF96608171818281938120E039
:103310003FEF4FE757E40E94C503181664F5FE011E
:10332000ED5BFF4F608171818281938120E030E00D
:1033300040E251E40E941F02DC01CB01BC01CD013F
:103340000E944900DC01CB019EAF8DAF0FC088EC1D
:1033500090E09CAF8BAF8BAD9CAD0197F1F79CAF2C
:103360008BAF8DAD9EAD01979EAF8DAF8DAD9EADF8
:10337000009769F716C0FE01FF9660817181828116
:1033800093810E944900DC01CB019EAF8DAF8DADD2
:103390009EAD9AAF89AF89AD9AAD0197F1F79AAF1B
:1033A00089AF0E94831785C0FE01EB59FF4F8081D2
:1033B000823039F0FE01EB59FF4F8081843009F0F3
:1033C00078C08AE890E00E94CC0780E090E0A8EC0A
:1033D000B3E48DAB9EABAFABB8AF6DA97EA98FA99F
:1033E00098AD20E030E04AEF54E40E941F02DC0177
:1033F000CB0189AB9AABABABBCAB69A97AA98BA962
:103400009CA920E030E040E85FE30E942504882387
:103410002CF481E090E098AB8FA73FC069A97AA90E
:103420008BA99CA920E03FEF4FE757E40E94C5031A
:1034300018164CF56DA97EA98FA998AD20E030E053
:1034400040E251E40E941F02DC01CB01BC01CD012E
:103450000E944900DC01CB0198AB8FA70FC088EC1C
:1034600090E09EA78DA78DA59EA50197F1F79EA739
:103470008DA78FA598A9019798AB8FA78FA598A91D
:10348000009769F714C069A97AA98BA99CA90E9421
:103490004900DC01CB0198AB8FA78FA598A99CA709
:1034A0008BA78BA59CA50197F1F79CA78BA70E94E2
:1034B0008317FE01ED59FF4F1182108285E990E0DC
:1034C0000E94CC077EC080E090E0A0E8BFE38FA31D
:1034D00098A7A9A7BAA76FA178A589A59AA520E062
:1034E00030E04AEF54E40E941F02DC01CB018BA3C1
:1034F0009CA3ADA3BEA36BA17CA18DA19EA120E046
:1035000030E040E85FE30E94250488232CF481E04A
:1035100090E09AA389A33FC06BA17CA18DA19EA13D
:1035200020E03FEF4FE757E40E94C50318164CF523
:103530006FA178A589A59AA520E030E040E251E48A
:103540000E941F02DC01CB01BC01CD010E94490099
:10355000DC01CB019AA389A30FC088EC90E098A36B
:103560008F8F8F8D98A10197F1F798A38F8F89A1E5
:103570009AA101979AA389A389A19AA1009769F7B3
:1035800014C06BA17CA18DA19EA10E944900DC0109
:10359000CB019AA389A389A19AA19E8F8D8F8D8D2E
:1035A0009E8D0197F1F79E8F8D8FDE01AD59BF4F34
:1035B000FE01ED59FF4F80819181019611969C93F8
:1035C0008E93FE01ED59FF4F80819181F7E0813D9F
:1035D0009F0738F487E690E00E943D17882309F49E
:1035E00072CFFE01ED59FF4F1182108283EA90E005
:1035F0000E94CC077EC080E090E0A0E8BFE3898F06
:103600009A8FAB8FBC8F698D7A8D8B8D9C8D20E0CE
:1036100030E04AEF54E40E941F02DC01CB018D8BA5
:103620009E8BAF8BB88F6D897E898F89988D20E0B6
:1036300030E040E85FE30E94250488232CF481E019
:1036400090E09C8B8B8B3FC06D897E898F89988D94
:1036500020E03FEF4FE757E40E94C50318164CF5F2
:10366000698D7A8D8B8D9C8D20E030E040E251E4B5
:103670000E941F02DC01CB01BC01CD010E94490068
:10368000DC01CB019C8B8B8B0FC088EC90E09A8B7C
:10369000898B89899A890197F1F79A8B898B8B8914
:1036A0009C8901979C8B8B8B8B899C89009769F7F0
:1036B00014C06D897E898F89988D0E944900DC0134
:1036C000CB019C8B8B8B8B899C89988B8F878F856B
:1036D00098890197F1F7988B8F87DE01AD59BF4F1D
:1036E000FE01ED59FF4F80819181019611969C93C7
:1036F0008E93FE01ED59FF4F8081918127E0813D3E
:10370000920738F487E690E00E943D17882309F479
:1037100072CFFE01ED59FF4F1182108281EB90E0D4
:103720000E94CC077EC080E090E0A0E8BFE38B87DA
:103730009C87AD87BE876B857C858D859E8520E0C7
:1037400030E04AEF54E40E941F02DC01CB018F837A
:103750009887A987BA876F81788589859A8520E0BF
:1037600030E040E85FE30E94250488232CF481E0E8
:1037700090E09E838D833FC06F81788589859A858F
:1037800020E03FEF4FE757E40E94C50318164CF5C1
:103790006B857C858D859E8520E030E040E251E49C
:1037A0000E941F02DC01CB01BC01CD010E94490037
:1037B000DC01CB019E838D830FC088EC90E09C835D
:1037C0008B838B819C810197F1F79C838B838D8107
:1037D0009E8101979E838D838D819E81009769F7DD
:1037E00014C06F81788589859A850E944900DC0123
:1037F000CB019E838D838D819E819A83898389816C
:103800009A810197F1F79A838983DE01AD59BF4F01
:10381000FE01ED59FF4F80819181019611969C9395
:103820008E93FE01ED59FF4F80819181E7E0813D4C
:103830009E0738F487E690E00E943D17882309F43C
:1038400072CF81E0CB59DF4F0FB6F894DEBF0FBEC9
:10385000CDBFCF91DF911F910F910895DF93CF934B
:10386000CDB7DEB765970FB6F894DEBF0FBECDBFFC
:103870009A8B898B7C8B6B8B188A1F8680EC90E0EF
:103880000E94CC0789899A890E94CC078BEC90E032
:103890000E94CC078B899C890E94CC078FEC90E01A
:1038A0000E94CC0777C080E090E0A0E8BFE38B8760
:1038B0009C87AD87BE876B857C858D859E8520E046
:1038C00030E04AEF54E40E941F02DC01CB018F83F9
:1038D0009887A987BA876F81788589859A8520E03E
:1038E00030E040E85FE30E94250488232CF481E067
:1038F00090E09E838D833FC06F81788589859A850E
:1039000020E03FEF4FE757E40E94C50318164CF53F
:103910006B857C858D859E8520E030E040E251E41A
:103920000E941F02DC01CB01BC01CD010E944900B5
:10393000DC01CB019E838D830FC088EC90E09C83DB
:103940008B838B819C810197F1F79C838B838D8185
:103950009E8101979E838D838D819E81009769F75B
:1039600014C06F81788589859A850E944900DC01A1
:10397000CB019E838D838D819E819A8389838981EA
:103980009A810197F1F79A8389838F8598890196A7
:10399000988B8F878F85988927E28131920768F409
:1039A00083ED90E00E943D17882339F488E091E090
:1039B0000E943D17882309F476CF8F85988927E2E6
:1039C0008131920748F00E945C1E823019F481E038
:1039D0008D8B04C01D8A02C021E02D8B8D896596D8
:1039E0000FB6F894DEBF0FBECDBFCF91DF91089523
:1039F000DF93CF93CDB7DEB76D970FB6F894DEBFE8
:103A00000FBECDBF1D8E0E945C1E8D8F8D8D8330AD
:103A100009F078C08CE790E00E94CC0780E090E04D
:103A2000A8ECB3E4898F9A8FAB8FBC8F698D7A8DA8
:103A30008B8D9C8D20E030E04AEF54E40E941F0201
:103A4000DC01CB018D8B9E8BAF8BB88F6D897E890E
:103A50008F89988D20E030E040E85FE30E942504E4
:103A600088232CF481E090E09C8B8B8B3FC06D8988
:103A70007E898F89988D20E03FEF4FE757E40E94C1
:103A8000C50318164CF5698D7A8D8B8D9C8D20E0C1
:103A900030E040E251E40E941F02DC01CB01BC0196
:103AA000CD010E944900DC01CB019C8B8B8B0FC0A8
:103AB00088EC90E09A8B898B89899A890197F1F734
:103AC0009A8B898B8B899C8901979C8B8B8B8B899B
:103AD0009C89009769F714C06D897E898F89988DBC
:103AE0000E944900DC01CB019C8B8B8B8B899C89CC
:103AF000988B8F878F8598890197F1F7988B8F879F
:103B00000E9483178D8D823021F08D8D843009F0D5
:103B10007FC08AE890E00E94CC0780E090E0A8ECAB
:103B2000B3E48B879C87AD87BE876B857C858D854D
:103B30009E8520E030E04AEF54E40E941F02DC0141
:103B4000CB018F839887A987BA876F81788589850C
:103B50009A8520E030E040E85FE30E942504882356
:103B60002CF481E090E09E838D833FC06F81788547
:103B700089859A8520E03FEF4FE757E40E94C5030F
:103B800018164CF56B857C858D859E8520E030E090
:103B900040E251E40E941F02DC01CB01BC01CD01D7
:103BA0000E944900DC01CB019E838D830FC088EC0D
:103BB00090E09C838B838B819C810197F1F79C83A0
:103BC0008B838D819E8101979E838D838D819E81C4
:103BD000009769F714C06F81788589859A850E945E
:103BE0004900DC01CB019E838D838D819E819A8368
:103BF000898389819A810197F1F79A8389830E9449
:103C0000831706C08CE291E00E9426130E9483175E
:103C100084E491E02EE431E0B9010E942E1C982F3B
:103C200081E08927882371F787E591E00E942613B8
:103C300006C08BE691E00E9426130E94831785E858
:103C400091E029E831E044EA51E0B9010E94941F73
:103C5000982F81E08927882361F789EA91E00E9403
:103C6000261306C08CEB91E00E9426130E94831756
:103C70008CED91E02DEE31E041E152E0B9010E947E
:103C8000D420982F81E08927882361F783E192E08F
:103C90000E9426138CE292E027E432E042E652E0F2
:103CA000B9010E948D266D960FB6F894DEBF0FBE47
:103CB000CDBFCF91DF910895DF93CF93CDB7DEB71E
:103CC0006F970FB6F894DEBF0FBECDBF1E8E1D8E50
:103CD0000E94831781E892E00E94CC0777C080E0C1
:103CE00090E0A0E8BFE3898F9A8FAB8FBC8F698D7E
:103CF0007A8D8B8D9C8D20E030E04AEF54E40E9459
:103D00001F02DC01CB018D8B9E8BAF8BB88F6D8931
:103D10007E898F89988D20E030E040E85FE30E9443
:103D2000250488232CF481E090E09C8B8B8B3FC092
:103D30006D897E898F89988D20E03FEF4FE757E4AA
:103D40000E94C50318164CF5698D7A8D8B8D9C8D5C
:103D500020E030E040E251E40E941F02DC01CB0190
:103D6000BC01CD010E944900DC01CB019C8B8B8BF7
:103D70000FC088EC90E09A8B898B89899A8901978A
:103D8000F1F79A8B898B8B899C8901979C8B8B8B04
:103D90008B899C89009769F714C06D897E898F890A
:103DA000988D0E944900DC01CB019C8B8B8B8B8909
:103DB0009C89988B8F878F8598890197F1F7988BCD
:103DC0008F878D8D9E8D01969E8F8D8F8D8D9E8D73
:103DD00027E0813D920738F480E992E00E94651760
:103DE000882309F47CCF80E090E0A8E4B2E48B87DC
:103DF0009C87AD87BE876B857C858D859E8520E001
:103E000030E04AEF54E40E941F02DC01CB018F83B3
:103E10009887A987BA876F81788589859A8520E0F8
:103E200030E040E85FE30E94250488232CF481E021
:103E300090E09E838D833FC06F81788589859A85C8
:103E400020E03FEF4FE757E40E94C50318164CF5FA
:103E50006B857C858D859E8520E030E040E251E4D5
:103E60000E941F02DC01CB01BC01CD010E94490070
:103E7000DC01CB019E838D830FC088EC90E09C8396
:103E80008B838B819C810197F1F79C838B838D8140
:103E90009E8101979E838D838D819E81009769F716
:103EA00014C06F81788589859A850E944900DC015C
:103EB000CB019E838D838D819E819A8389838981A5
:103EC0009A810197F1F79A83898387E992E00E94AA
:103ED0003D17882319F082E08F8F1CC08CE992E097
:103EE0000E943D17882319F023E02F8F13C081EA29
:103EF00092E00E943D17882319F084E08F8F0AC05A
:103F000086EA92E00E943D17882319F025E02F8F62
:103F100001C01F8E8F8D6F960FB6F894DEBF0FBE57
:103F2000CDBFCF91DF910895DF93CF93CDB7DEB7AB
:103F3000A5970FB6F894DEBF0FBECDBF98A38F8FA5
:103F40007AA369A35CA34BA31E8E1D8E8BEA92E01D
:103F50000E94CC078F8D98A10E94CC078BEC90E03B
:103F60000E94CC0789E891E00E94CC0789EB92E09F
:103F70000E94CC0784EA91E00E94CC078CEB92E08F
:103F80000E94CC0777C080E090E0A0E8BFE3898F73
:103F90009A8FAB8FBC8F698D7A8D8B8D9C8D20E035
:103FA00030E04AEF54E40E941F02DC01CB018D8B0C
:103FB0009E8BAF8BB88F6D897E898F89988D20E01D
:103FC00030E040E85FE30E94250488232CF481E080
:103FD00090E09C8B8B8B3FC06D897E898F89988DFB
:103FE00020E03FEF4FE757E40E94C50318164CF559
:103FF000698D7A8D8B8D9C8D20E030E040E251E41C
:104000000E941F02DC01CB01BC01CD010E944900CE
:10401000DC01CB019C8B8B8B0FC088EC90E09A8BE2
:10402000898B89899A890197F1F79A8B898B8B897A
:104030009C8901979C8B8B8B8B899C89009769F756
:1040400014C06D897E898F89988D0E944900DC019A
:10405000CB019C8B8B8B8B899C89988B8F878F85D1
:1040600098890197F1F7988B8F878D8D9E8D01969A
:104070009E8F8D8F8D8D9E8D2FE18134920738F428
:104080008FEB92E00E943D17882309F47CCF80E0FB
:1040900090E0A6E9B3E48B879C87AD87BE876B85EC
:1040A0007C858D859E8520E030E04AEF54E40E94B7
:1040B0001F02DC01CB018F839887A987BA876F81A4
:1040C000788589859A8520E030E040E85FE30E94AA
:1040D000250488232CF481E090E09E838D833FC0EB
:1040E0006F81788589859A8520E03FEF4FE757E417
:1040F0000E94C50318164CF56B857C858D859E85C1
:1041000020E030E040E251E40E941F02DC01CB01DC
:10411000BC01CD010E944900DC01CB019E838D834F
:104120000FC088EC90E09C838B838B819C810197EE
:10413000F1F79C838B838D819E8101979E838D8374
:104140008D819E81009769F714C06F81788589857C
:104150009A850E944900DC01CB019E838D838D816D
:104160009E819A83898389819A810197F1F79A8345
:1041700089838D8D9E8D2FE18134920748F00E94B6
:104180005C1E833019F481E08DA304C01DA202C01F
:1041900021E02DA38DA1A5960FB6F894DEBF0FBE2A
:1041A000CDBFCF91DF910895DF93CF93CDB7DEB729
:1041B000E8970FB6F894DEBF0FBECDBF9BAB8AABBE
:1041C0007DAB6CAB5FAB4EAB19AA18AA1FA61EA69F
:1041D0001DA61CA61BA68AA99BA90E94902D8FA78D
:1041E0008CA99DA90E94902D8EA78EA99FA90E949F
:1041F000902D8DA79FA58EA5980F8DA5890F805F07
:104200008CA78CA58E5F8BA70E9483178FEC92E002
:104210000E94CC078BA5882F90E00E94F7078CEBBB
:1042200092E00E94CC0777C080E090E0A0E8BFE376
:104230008FA398A7A9A7BAA76FA178A589A59AA5C2
:1042400020E030E04AEF54E40E941F02DC01CB0181
:104250008BA39CA3ADA3BEA36BA17CA18DA19EA1AA
:1042600020E030E040E85FE30E94250488232CF43E
:1042700081E090E09AA389A33FC06BA17CA18DA1AE
:104280009EA120E03FEF4FE757E40E94C5031816B8
:104290004CF56FA178A589A59AA520E030E040E211
:1042A00051E40E941F02DC01CB01BC01CD010E9440
:1042B0004900DC01CB019AA389A30FC088EC90E0F0
:1042C00098A38F8F8F8D98A10197F1F798A38F8F67
:1042D00089A19AA101979AA389A389A19AA100977C
:1042E00069F714C06BA17CA18DA19EA10E94490019
:1042F000DC01CB019AA389A389A19AA19E8F8D8FFE
:104300008D8D9E8D0197F1F79E8F8D8F88A999A92C
:10431000019699AB88AB88A999A927E0813D9207BE
:1043200038F48BED92E00E943D17882309F47CCF8E
:1043300080E10E94A6078CA50E94A60780E00E944B
:10434000A60784E00E94A60784EE92E00E94CC07B4
:1043500084E00E94A60782EC0E94A6078CE80E94D7
:10436000A60780EA0E94A60780E00E94A6078FA504
:104370000E94A6078CED91E00E94CC0780E00E948D
:10438000A6078EA50E94A6078DEE91E00E94CC079D
:1043900080E00E94A6078DA50E94A60781E192E019
:1043A0000E94CC0777C080E090E0A0E8BFE3898F4F
:1043B0009A8FAB8FBC8F698D7A8D8B8D9C8D20E011
:1043C00030E04AEF54E40E941F02DC01CB018D8BE8
:1043D0009E8BAF8BB88F6D897E898F89988D20E0F9
:1043E00030E040E85FE30E94250488232CF481E05C
:1043F00090E09C8B8B8B3FC06D897E898F89988DD7
:1044000020E03FEF4FE757E40E94C50318164CF534
:10441000698D7A8D8B8D9C8D20E030E040E251E4F7
:104420000E941F02DC01CB01BC01CD010E944900AA
:10443000DC01CB019C8B8B8B0FC088EC90E09A8BBE
:10444000898B89899A890197F1F79A8B898B8B8956
:104450009C8901979C8B8B8B8B899C89009769F732
:1044600014C06D897E898F89988D0E944900DC0176
:10447000CB019C8B8B8B8B899C89988B8F878F85AD
:1044800098890197F1F7988B8F8788A999A9019648
:1044900099AB88AB88A999A927E0813D920738F4A8
:1044A00089EE92E00E946517882309F47CCF80E0B2
:1044B00090E0A6E9B3E48B879C87AD87BE876B85C8
:1044C0007C858D859E8520E030E04AEF54E40E9493
:1044D0001F02DC01CB018F839887A987BA876F8180
:1044E000788589859A8520E030E040E85FE30E9486
:1044F000250488232CF481E090E09E838D833FC0C7
:104500006F81788589859A8520E03FEF4FE757E4F2
:104510000E94C50318164CF56B857C858D859E859C
:1045200020E030E040E251E40E941F02DC01CB01B8
:10453000BC01CD010E944900DC01CB019E838D832B
:104540000FC088EC90E09C838B838B819C810197CA
:10455000F1F79C838B838D819E8101979E838D8350
:104560008D819E81009769F714C06F817885898558
:104570009A850E944900DC01CB019E838D838D8149
:104580009E819A83898389819A810197F1F79A8321
:10459000898388A999A927E0813D920710F018AE78
:1045A00002C081E088AF88ADE8960FB6F894DEBF10
:1045B0000FBECDBFCF91DF910895DF93CF93CDB7DD
:1045C000DEB7AD970FB6F894DEBF0FBECDBF1CA609
:1045D0001BA68EEE92E00E94CC0777C080E090E0B0
:1045E000A0E8BFE38FA398A7A9A7BAA76FA178A552
:1045F00089A59AA520E030E04AEF54E40E941F020A
:10460000DC01CB018BA39CA3ADA3BEA36BA17CA1BA
:104610008DA19EA120E030E040E85FE30E942504E8
:1046200088232CF481E090E09AA389A33FC06BA17A
:104630007CA18DA19EA120E03FEF4FE757E40E94AF
:10464000C50318164CF56FA178A589A59AA520E099
:1046500030E040E251E40E941F02DC01CB01BC01CA
:10466000CD010E944900DC01CB019AA389A30FC0B0
:1046700088EC90E098A38F8F8F8D98A10197F1F728
:1046800098A38F8F89A19AA101979AA389A389A141
:104690009AA1009769F714C06BA17CA18DA19EA17E
:1046A0000E944900DC01CB019AA389A389A19AA1A8
:1046B0009E8F8D8F8D8D9E8D0197F1F79E8F8D8FA3
:1046C0008BA59CA501969CA78BA78BA59CA527E0F5
:1046D000813D920738F48BED92E00E943D178823CC
:1046E00009F47CCF80EC0E94A60780E00E94A60718
:1046F00077C080E090E0A0E8BFE3898F9A8FAB8F0E
:10470000BC8F698D7A8D8B8D9C8D20E030E04AEFD7
:1047100054E40E941F02DC01CB018D8B9E8BAF8B7A
:10472000B88F6D897E898F89988D20E030E040E8D0
:104730005FE30E94250488232CF481E090E09C8BA9
:104740008B8B3FC06D897E898F89988D20E03FEFEC
:104750004FE757E40E94C50318164CF5698D7A8D12
:104760008B8D9C8D20E030E040E251E40E941F02DE
:10477000DC01CB01BC01CD010E944900DC01CB0171
:104780009C8B8B8B0FC088EC90E09A8B898B8989EE
:104790009A890197F1F79A8B898B8B899C8901976C
:1047A0009C8B8B8B8B899C89009769F714C06D89D2
:1047B0007E898F89988D0E944900DC01CB019C8BFA
:1047C0008B8B8B899C89988B8F878F859889019794
:1047D000F1F7988B8F878BA59CA501969CA78BA73B
:1047E0008BA59CA527E0813D920738F489EE92E0E5
:1047F0000E946517882309F47CCF80E090E0A6E949
:10480000B3E48B879C87AD87BE876B857C858D8560
:104810009E8520E030E04AEF54E40E941F02DC0154
:10482000CB018F839887A987BA876F81788589851F
:104830009A8520E030E040E85FE30E942504882369
:104840002CF481E090E09E838D833FC06F8178855A
:1048500089859A8520E03FEF4FE757E40E94C50322
:1048600018164CF56B857C858D859E8520E030E0A3
:1048700040E251E40E941F02DC01CB01BC01CD01EA
:104880000E944900DC01CB019E838D830FC088EC20
:1048900090E09C838B838B819C810197F1F79C83B3
:1048A0008B838D819E8101979E838D838D819E81D7
:1048B000009769F714C06F81788589859A850E9471
:1048C0004900DC01CB019E838D838D819E819A837B
:1048D000898389819A810197F1F79A8389830E945C
:1048E00083178BA59CA527E0813D920710F01DA69C
:1048F00002C081E08DA78DA5AD960FB6F894DEBFFE
:104900000FBECDBFCF91DF910895DF93CF93CDB789
:10491000DEB7C254D0400FB6F894DEBF0FBECDBF95
:104920009DAF8CAF7FAF6EAFFE01E05CFF4F518358
:10493000408319AA18AA1FA61EA61DA61CA61BA660
:10494000FE01E05CFF4F808191819E012E5C3F4F14
:10495000B9014AE050E00E94C12D8CAD9DAD0E948E
:10496000902D89ABCE01C2960E94902D8FA78EAD5F
:104970009FAD0E94902D8DA799A98FA5980F8DA509
:10498000890F8D5F88AB88A98E5F8EA70E948317E1
:104990008FEC92E00E94CC078EA5882F90E00E94B9
:1049A000F7078CEB92E00E94CC0777C080E090E0A4
:1049B000A0E8BFE38FA398A7A9A7BAA76FA178A57E
:1049C00089A59AA520E030E04AEF54E40E941F0236
:1049D000DC01CB018BA39CA3ADA3BEA36BA17CA1E7
:1049E0008DA19EA120E030E040E85FE30E94250415
:1049F00088232CF481E090E09AA389A33FC06BA1A7
:104A00007CA18DA19EA120E03FEF4FE757E40E94DB
:104A1000C50318164CF56FA178A589A59AA520E0C5
:104A200030E040E251E40E941F02DC01CB01BC01F6
:104A3000CD010E944900DC01CB019AA389A30FC0DC
:104A400088EC90E098A38F8F8F8D98A10197F1F754
:104A500098A38F8F89A19AA101979AA389A389A16D
:104A60009AA1009769F714C06BA17CA18DA19EA1AA
:104A70000E944900DC01CB019AA389A389A19AA1D4
:104A80009E8F8D8F8D8D9E8D0197F1F79E8F8D8FCF
:104A90008BA59CA501969CA78BA78BA59CA527E021
:104AA000813D920738F48BED92E00E943D178823F8
:104AB00009F47CCF80E30E94A60788A90E94A6077C
:104AC00080E00E94A60789A90E94A6078CAD9DAD33
:104AD0000E94CC078EAD9FAD0E94CC07FE01E05C2A
:104AE000FF4F808191810E94F7078DEF92E00E9435
:104AF000CC0777C080E090E0A0E8BFE3898F9A8F71
:104B0000AB8FBC8F698D7A8D8B8D9C8D20E030E0D2
:104B10004AEF54E40E941F02DC01CB018D8B9E8B77
:104B2000AF8BB88F6D897E898F89988D20E030E0BA
:104B300040E85FE30E94250488232CF481E090E0A4
:104B40009C8B8B8B3FC06D897E898F89988D20E0EF
:104B50003FEF4FE757E40E94C50318164CF5698DE7
:104B60007A8D8B8D9C8D20E030E040E251E40E94F4
:104B70001F02DC01CB01BC01CD010E944900DC0118
:104B8000CB019C8B8B8B0FC088EC90E09A8B898B30
:104B900089899A890197F1F79A8B898B8B899C89EE
:104BA00001979C8B8B8B8B899C89009769F714C02C
:104BB0006D897E898F89988D0E944900DC01CB0127
:104BC0009C8B8B8B8B899C89988B8F878F85988901
:104BD0000197F1F7988B8F878BA59CA501969CA7D1
:104BE0008BA78BA59CA527E0813D920738F48FEF1A
:104BF00092E00E946517882309F47CCF80E090E062
:104C0000A6E9B3E48B879C87AD87BE876B857C85DF
:104C10008D859E8520E030E04AEF54E40E941F021B
:104C2000DC01CB018F839887A987BA876F8178854C
:104C300089859A8520E030E040E85FE30E94250402
:104C400088232CF481E090E09E838D833FC06F81A8
:104C5000788589859A8520E03FEF4FE757E40E94E9
:104C6000C50318164CF56B857C858D859E8520E0E7
:104C700030E040E251E40E941F02DC01CB01BC01A4
:104C8000CD010E944900DC01CB019E838D830FC0C2
:104C900088EC90E09C838B838B819C810197F1F75A
:104CA0009C838B838D819E8101979E838D838D81D3
:104CB0009E81009769F714C06F81788589859A85F0
:104CC0000E944900DC01CB019E838D838D819E81F2
:104CD0009A83898389819A810197F1F79A838983DD
:104CE0000E9483178BA59CA527E0813D920720F0A9
:104CF00023961FAE239704C081E023968FAF23979E
:104D000023968FAD2397CE5BDF4F0FB6F894DEBFAF
:104D10000FBECDBFCF91DF910895DF93CF93CDB775
:104D2000DEB764970FB6F894DEBF0FBECDBF988B89
:104D30008F877A8B698B5C8B4B8B06C089E093E005
:104D40000E9426130E9483178F8598890E945627F8
:104D5000982F81E08927882389F78BE193E00E94CF
:104D6000261306C089E293E00E9426130E9483174F
:104D700089899A890E945627982F81E0892788235C
:104D800089F78BE393E00E94261306C089E493E041
:104D90000E9426130E9483178B899C890E945627A4
:104DA000982F81E08927882389F78BE593E00E947B
:104DB000261380E090E0AAEFB4E48B879C87AD8750
:104DC000BE876B857C858D859E8520E030E04AEF2F
:104DD00054E40E941F02DC01CB018F839887A987CE
:104DE000BA876F81788589859A8520E030E040E830
:104DF0005FE30E94250488232CF481E090E09E83E9
:104E00008D833FC06F81788589859A8520E03FEF4B
:104E10004FE757E40E94C50318164CF56B857C8557
:104E20008D859E8520E030E040E251E40E941F0223
:104E3000DC01CB01BC01CD010E944900DC01CB01AA
:104E40009E838D830FC088EC90E09C838B838B8145
:104E50009C810197F1F79C838B838D819E810197C3
:104E60009E838D838D819E81009769F714C06F8129
:104E7000788589859A850E944900DC01CB019E8353
:104E80008D838D819E819A83898389819A810197FF
:104E9000F1F79A8389830E94831764960FB6F8947A
:104EA000DEBF0FBECDBFCF91DF910895DF93CF93CB
:104EB000CDB7DEB7E2970FB6F894DEBF0FBECDBF19
:104EC00099AB88AB1FA61EA61DA61CA61BA688A96B
:104ED00099A90E94902D8FA78FA58B5F8EA78EA575
:104EE0008E5F8DA70E9483178FEC92E00E94CC0703
:104EF0008DA5882F90E00E94F7078CEB92E00E942E
:104F0000CC0777C080E090E0A0E8BFE38FA398A72C
:104F1000A9A7BAA76FA178A589A59AA520E030E036
:104F20004AEF54E40E941F02DC01CB018BA39CA337
:104F3000ADA3BEA36BA17CA18DA19EA120E030E01A
:104F400040E85FE30E94250488232CF481E090E090
:104F50009AA389A33FC06BA17CA18DA19EA120E053
:104F60003FEF4FE757E40E94C50318164CF56FA1B9
:104F700078A589A59AA520E030E040E251E40E949E
:104F80001F02DC01CB01BC01CD010E944900DC0104
:104F9000CB019AA389A30FC088EC90E098A38F8FD0
:104FA0008F8D98A10197F1F798A38F8F89A19AA16E
:104FB00001979AA389A389A19AA1009769F714C0C0
:104FC0006BA17CA18DA19EA10E944900DC01CB01B7
:104FD0009AA389A389A19AA19E8F8D8F8D8D9E8D75
:104FE0000197F1F79E8F8D8F8BA59CA501969CA7AD
:104FF0008BA78BA59CA527E0813D920738F48BED0C
:1050000092E00E943D17882309F47CCF82E80E9439
:10501000A6078EA50E94A60780E00E94A6078AE048
:105020000E94A60780E00E94A6078FA50E94A607FF
:1050300088A999A90E94CC0780E00E94A60777C0A2
:1050400080E090E0A0E8BFE3898F9A8FAB8FBC8FA0
:10505000698D7A8D8B8D9C8D20E030E04AEF54E491
:105060000E941F02DC01CB018D8B9E8BAF8BB88F12
:105070006D897E898F89988D20E030E040E85FE37C
:105080000E94250488232CF481E090E09C8B8B8B7C
:105090003FC06D897E898F89988D20E03FEF4FE773
:1050A00057E40E94C50318164CF5698D7A8D8B8DD7
:1050B0009C8D20E030E040E251E40E941F02DC01C0
:1050C000CB01BC01CD010E944900DC01CB019C8BCE
:1050D0008B8B0FC088EC90E09A8B898B89899A8999
:1050E0000197F1F79A8B898B8B899C8901979C8B0F
:1050F0008B8B8B899C89009769F714C06D897E8999
:105100008F89988D0E944900DC01CB019C8B8B8B91
:105110008B899C89988B8F878F8598890197F1F768
:10512000988B8F878BA59CA501969CA78BA78BA599
:105130009CA52BE0893B920738F48FEF92E00E9408
:105140006517882309F47CCF80E090E0A6E9B3E4FA
:105150008B879C87AD87BE876B857C858D859E857B
:1051600020E030E04AEF54E40E941F02DC01CB0152
:105170008F839887A987BA876F81788589859A8573
:1051800020E030E040E85FE30E94250488232CF40F
:1051900081E090E09E838D833FC06F817885898513
:1051A0009A8520E03FEF4FE757E40E94C5031816A9
:1051B0004CF56B857C858D859E8520E030E040E256
:1051C00051E40E941F02DC01CB01BC01CD010E9411
:1051D0004900DC01CB019E838D830FC088EC90E0F9
:1051E0009C838B838B819C810197F1F79C838B83BC
:1051F0008D819E8101979E838D838D819E810097F5
:1052000069F714C06F81788589859A850E94490065
:10521000DC01CB019E838D838D819E819A8389835E
:1052200089819A810197F1F79A8389830E94831774
:105230008BA59CA52BE0893B920710F01AAA02C00F
:1052400081E08AAB8AA9E2960FB6F894DEBF0FBE62
:10525000CDBFCF91DF910895DF93CF93CDB7DEB768
:10526000A5970FB6F894DEBF0FBECDBF9E8F8D8F72
:1052700078A36F8F5AA349A33CA32BA31C8E1B8E2C
:105280001A8E198E188E1F8A1E8A1D8A1C8A1B8AE6
:105290008D8D9E8D0E94902D898F8F8D98A10E945B
:1052A000902D888F89A19AA10E94902D8F8B83E3E6
:1052B00096E029E633E0B9010E94A72D9A8B898BED
:1052C00083E396E020E733E0B9010E94A72D988B95
:1052D0008F8789899A89009709F494C11C8E8EC1A1
:1052E0008D8D9E8D23E08937920709F47AC01E8A3E
:1052F0001B8E72C08C8D282F30E08B8D882F90E014
:10530000820F931FFC01ED5CF94F40818B8D282F9C
:1053100030E08D8D9E8DFC01E20FF31F80814817D8
:1053200009F057C08E898F5F8E8B9E89898D981763
:1053300009F04FC081E08B8B1A8E37C08B8D8F5F49
:105340008B8F8C8D282F30E08B8D882F90E0820FF3
:10535000931FFC01ED5CF94F8081803371F08C8DDF
:10536000282F30E08B8D882F90E0820F931FFC0157
:10537000ED5CF94F80818133C1F48A8D482F50E074
:105380008C8D282F30E08B8D882F90E0820F931F1B
:10539000FC01ED5CF94F20818BA19CA1FC01E40F85
:1053A000F51F20838A8D8F5F8A8F8C8D282F30E0A8
:1053B0008B8D882F90E0820F931FFC01ED5CF94FDD
:1053C0008081882321F08A8D853008F4B7CF0E9430
:1053D00083178B8D8F5F8B8F9B8D898D981708F42A
:1053E00089CF8F8D98A123E08937920709F47BC07C
:1053F0001D8A1B8E73C08C8D282F30E08B8D882FDB
:1054000090E0820F931FFC01ED5CF94F40818B8D82
:10541000282F30E08F8D98A1FC01E20FF31F8081CF
:10542000481709F058C08D898F5F8D8B9D89888DB5
:10543000981709F050C081E08B8B1A8E38C08B8D85
:105440008F5F8B8F8C8D282F30E08B8D882F90E095
:10545000820F931FFC01ED5CF94F8081803371F066
:105460008C8D282F30E08B8D882F90E0820F931F3A
:10547000FC01ED5CF94F80818133C9F48A8D482F9E
:1054800050E08C8D282F30E08B8D882F90E0820F9C
:10549000931FFC01ED5CF94F20818BA19CA1840F2F
:1054A000951FFC01359620838A8D8F5F8A8F8C8DA6
:1054B000282F30E08B8D882F90E0820F931FFC0106
:1054C000ED5CF94F8081882321F08A8D853008F4C6
:1054D000B6CF0E9483178B8D8F5F8B8F9B8D888DAE
:1054E000981708F488CF89A19AA123E089379207F9
:1054F00009F47BC01C8A1B8E73C08C8D282F30E072
:105500008B8D882F90E0820F931FFC01ED5CF94F8B
:1055100040818B8D282F30E089A19AA1FC01E20FF8
:10552000F31F8081481709F058C08C898F5F8C8BDE
:105530009C898F89981709F050C081E08B8B1A8E57
:1055400038C08B8D8F5F8B8F8C8D282F30E08B8DAB
:10555000882F90E0820F931FFC01ED5CF94F808152
:10556000803338F18C8D282F30E08B8D882F90E0A0
:10557000820F931FFC01ED5CF94F80818A33C8F4E0
:105580008A8D482F50E08C8D282F30E08B8D882F0E
:1055900090E0820F931FFC01ED5CF94F20818BA1FD
:1055A0009CA1840F951FFC013A9620838A8D8F5F02
:1055B0008A8F8C8D282F30E08B8D882F90E0820F82
:1055C000931FFC01ED5CF94F8081882321F08A8DC7
:1055D000853008F4B6CF0E9483178B8D8F5F8B8F39
:1055E0009B8D8F89981708F488CF8B89882319F0B1
:1055F00081E08DA383C08C8D8F5F8C8F8C8D8436E2
:1056000008F46ECE8F859889009709F476C080E003
:1056100090E0AAE7B5E48B879C87AD87BE876B8552
:105620007C858D859E8520E030E04AEF54E40E9421
:105630001F02DC01CB018F839887A987BA876F810E
:10564000788589859A8520E030E040E85FE30E9414
:10565000250488232CF481E090E09E838D833FC055
:105660006F81788589859A8520E03FEF4FE757E481
:105670000E94C50318164CF56B857C858D859E852B
:1056800020E030E040E251E40E941F02DC01CB0147
:10569000BC01CD010E944900DC01CB019E838D83BA
:1056A0000FC088EC90E09C838B838B819C81019759
:1056B000F1F79C838B838D819E8101979E838D83DF
:1056C0008D819E81009769F714C06F8178858985E7
:1056D0009A850E944900DC01CB019E838D838D81D8
:1056E0009E819A83898389819A810197F1F79A83B0
:1056F00089830E9483170E94F81C1DA28DA1A59684
:105700000FB6F894DEBF0FBECDBFCF91DF910895E5
:10571000DF93CF93CDB7DEB7A1970FB6F894DEBF76
:105720000FBECDBF1A8A198A86E1888B1F860E9418
:105730001707A1E3B0E0E1E3F0E08081806F8C9394
:10574000A2E3B0E0E2E3F0E0808180618C93A2E329
:10575000B0E0E2E3F0E0808180628C9378940E9474
:105760001A088EE793E00E9426130E94941706C041
:1057700084E893E00E9426130E9483178CE993E04B
:1057800026EA33E0B9010E942E1C982F81E0892778
:10579000882371F78FEA93E00E94261306C083ECFA
:1057A00093E00E9426130E9483178DED93E021EE73
:1057B00033E04CEF53E0B9010E94941F982F81E031
:1057C0008927882361F781E094E00E94261306C0B0
:1057D00084E194E00E9426130E94831784E394E0FE
:1057E00025E434E049E654E0B9010E94D420982F22
:1057F00081E08927882361F78BE694E00E942613D5
:1058000084E894E02FE934E04AEB54E0B9010E94C7
:105810008D26CE01439660E070E045E050E00E94A6
:10582000892DCE014396059660E070E045E050E09A
:105830000E94892DCE0143960A9660E070E045E013
:1058400050E00E94892D89ED94E00E9426138989F9
:105850009A8901969A8B898B80E090E0A0E8BFE35B
:105860008B879C87AD87BE876B857C858D859E8564
:1058700020E030E04AEF54E40E941F02DC01CB013B
:105880008F839887A987BA876F81788589859A855C
:1058900020E030E040E85FE30E94250488232CF4F8
:1058A00081E090E09E838D833FC06F8178858985FC
:1058B0009A8520E03FEF4FE757E40E94C503181692
:1058C0004CF56B857C858D859E8520E030E040E23F
:1058D00051E40E941F02DC01CB01BC01CD010E94FA
:1058E0004900DC01CB019E838D830FC088EC90E0E2
:1058F0009C838B838B819C810197F1F79C838B83A5
:105900008D819E8101979E838D838D819E810097DD
:1059100069F714C06F81788589859A850E9449004E
:10592000DC01CB019E838D838D819E819A83898347
:1059300089819A810197F1F79A83898389899A8964
:105940002AEE8036920770F01A8A198A8F858F5F47
:105950008F870E94DD22982F81E08927882311F00C
:105960000E94F81C8F85843061F51F8681E00E94BB
:105970004E07888B8889482F50E089EE94E02CEF01
:1059800034E0B9010E948524982F81E0892788237B
:1059900011F00E94F81C88898F3150F089EE94E054
:1059A00025E035E0B90141E050E00E94852409C0BE
:1059B00089EE94E025E035E0B90140E050E00E9436
:1059C000852484E894E02FE934E04AEB54E0FE01BA
:1059D0007396B9019F010E942C29882309F437CFBF
:1059E0000E9475138EE095E00E94FD1282E061E056
:1059F0000E941212FE0173969081EEE1F5E0808123
:105A0000981729F480E295E00E94FD120CC0FE0177
:105A100073969081E3E2F5E08081981721F485E2A6
:105A200095E00E94FD1282E066E00E941212CE0113
:105A30004396FC0135969081EEE1F5E08081981760
:105A400029F480E295E00E94FD120EC0CE0143963B
:105A5000FC0135969081E3E2F5E08081981721F40E
:105A600085E295E00E94FD1282E06BE00E94121236
:105A7000CE0143960A960E94FD12E9CEAA1BBB1BDB
:105A800051E107C0AA1FBB1FA617B70710F0A61B3E
:105A9000B70B881F991F5A95A9F780959095BC015F
:105AA000CD0108952F923F924F925F926F927F9215
:105AB0008F929F92AF92BF92CF92DF92EF92FF921E
:105AC0000F931F93CF93DF93CDB7DEB7CA1BDB0BCA
:105AD0000FB6F894DEBF0FBECDBF09942A8839886F
